:020000040800F2
:1000000068060020350200083D0200083F02000893
:1000100041020008430200084502000800000000F9
:10002000000000000000000000000000470200087F
:1000300049020008000000004B0200084D020008C1
:100040004F0200084F0200084F0200084F0200084C
:100050004F0200084F0200084F020008E9020008A2
:100060003103000879030008C10300084F020008AB
:100070004F0200084F0200084F0200084F0200081C
:100080004F0200084F0200084F0200080000000065
:100090000000000000000000000000004F02000807
:1000A0004F0200084F0200084F0200084F020008EC
:1000B0004F0200084F0200084F0200084F020008DC
:1000C0004F0200084F0200084F0200084F020008CC
:1000D0004F020008A9050008CD0500080000000037
:1000E0004F0200084F0200084F0200080000000005
:1000F0000000000000000000000000004F020008A7
:10010000000000004F0200084F0200084F020008E4
:1001100000000000000000000000000000000000DF
:100120004F0200084F0200084F0200084F0200086B
:100130004F02000800000000000000000000000066
:100140000000000000000000000000004F02000856
:100150004F0200084F0200084F0200084F0200083B
:100160004F0200084F0200080000000000000000DD
:10017000000000000000000000000000000000007F
:10018000000000004F020008000000000000000016
:100190004F02000800F002F800F03CF80AA090E8D6
:1001A000000C82448344AAF10107DA4501D100F032
:1001B00031F8AFF2090EBAE80F0013F0010F18BFC3
:1001C000FB1A43F001031847FC0800001C0900005B
:1001D000103A24BF78C878C1FAD8520724BF30C873
:1001E00030C144BF04680C60704700000023002445
:1001F00000250026103A28BF78C1FBD8520728BF37
:1002000030C148BF0B6070471FB500F055FC1FBDE3
:1002100010B510BD00F031F81146FFF7F5FF00F002
:1002200087FA00F04FF803B4FFF7F2FF03BC00F0C9
:1002300053F800000948804709480047FEE7FEE7F9
:10024000FEE7FEE7FEE7FEE7FEE7FEE7FEE7FEE786
:1002500004480549054A064B70470000450500085B
:100260009501000868000020680600206802002050
:1002700068020020704770477047754600F028F804
:10028000AE4605006946534620F00700854618B083
:1002900020B5FFF7DDFFBDE820404FF000064FF02E
:1002A00000074FF000084FF0000B21F00701AC46AB
:1002B000ACE8C009ACE8C009ACE8C009ACE8C009CA
:1002C0008D4670470446AFF300802046FFF7ABFF32
:1002D000004870470800002001491820ABBEFEE727
:1002E000260002007047000010B50D48006840F07D
:1002F00002000B490860072000F086F809480068F2
:1003000000F0020058B1012000F070FA06490860C0
:10031000096888B200F0BEFB044800F06EF910BD19
:10032000143C01401008024000000020A08601009B
:1003300010B50D48006840F004000B490860082023
:1003400000F062F80948006800F0040058B102208B
:1003500000F04CFA06490860096888B200F09AFB80
:10036000044800F04AF910BD143C01401008024056
:1003700000000020A086010010B50D48006840F084
:1003800008000B490860092000F03EF809480068A1
:1003900000F0080058B1032000F028FA0649086070
:1003A000096888B200F076FB044800F026F910BD19
:1003B000143C01401008024000000020A08601000B
:1003C00010B50D48006840F010000B4908600A2085
:1003D00000F01AF80948006800F0100058B1042035
:1003E00000F004FA06490860096888B200F052FB80
:1003F000044800F002F910BD143C0140100802400E
:1004000000000020A086010000F01F0201219140A1
:10041000024A430942F823107047000080E200E0DE
:1004200000F01F02012191404209920002F1E022F6
:10043000C2F800117047000010B5002807DA0A075B
:10044000140E054A00F00F031B1FD45403E00A07E3
:10045000130E024A135410BD18ED00E000E400E052
:100460001F48006840F002001D4908601C48143015
:10047000006840F480501A49143108601948006837
:1004800020F44C60174908600846006840F4086092
:100490000860144820300068134908401149203191
:1004A000086008460068114908430E492031086079
:1004B0000C48006820F440700A490860084600684B
:1004C00040F4807008604FF44770094908600020CC
:1004D00048600846006840F040000860704700002F
:1004E0003038024000040240FF0F0FFF0050500060
:1004F00000300140C0B2C9B200BF104A926802F099
:100500000202002AF9D00D4AD0604FF480120C4B41
:100510001A6000BF094A926802F00202002AF9D06C
:10052000064AD16000BF054A926802F08002002AA4
:10053000F9D11022024B1A607047000000300140D0
:10054000180402401448006840F470001249086022
:100550001248006840F001001049086000200F496F
:10056000083108600D4800680D4908400B490860D3
:100570000C48091D0860081F006820F48020091F2E
:100580000860002005490C3108604FF00060024906
:10059000803908607047000088ED00E000380240B4
:1005A000FFFFF6FE1030002410B50748006800F089
:1005B000200040B12520FFF727FF03494968C1F318
:1005C000080000F027F810BD0010014010B52620EB
:1005D000FFF71AFF10BD00B500210120FFF78AFFC9
:1005E00000210220FFF786FF00210320FFF782FF92
:1005F00000210420FFF77EFF00BD08B50021009117
:10060000009102E00099491C009100998142F9DBB8
:1006100008BD000010B50446002C13DB092C11DCCA
:1006200021B210480068401CFFF764FF0D490968BB
:10063000481CC11700EB91718910A0EB8101094A98
:1006400011600DE00A2C01D00C2C05D1FFF7C3FF7F
:1006500000200449086003E00D2C01D100F046F9A8
:1006600010BD00000400002010B53048006840F0C4
:1006700002002E4908602D480830006840F0020052
:100680002A49083108602948006840F004002749D9
:10069000086026480830006840F00400234908310B
:1006A00008602248006840F00800204908601F48A0
:1006B0000830006840F008001C49083108601B48F9
:1006C000006840F0100019490860184808300068B8
:1006D00040F0100015490831086000210720FFF79D
:1006E000ABFE00210820FFF7A7FE00210920FFF73D
:1006F000A3FE00210A20FFF79FFE0720FFF784FEDC
:100700000820FFF781FE0920FFF77EFE0A20FFF791
:100710007BFE0720FFF784FE0820FFF781FE0920FB
:10072000FFF77EFE0A20FFF77BFE10BD003C014074
:100730002B48006840F0010029490860084600681D
:1007400040F0040008604FF4A8402649086024489F
:100750001430006840F48040214914310860224878
:10076000006840F02000204908600846006840F416
:10077000007008600846006840F4005008601A489D
:100780000838C06840F0020117480838C16072B6E6
:10079000FFF766FE0F210920FFF7ACFE03210B20B7
:1007A000FFF7A8FE0F210A20FFF7A4FE01210C206D
:1007B000FFF7A0FE082000F0ABF862B6FFF754FF89
:1007C0000848143000684FF61F710840054914317D
:1007D00008600846006840F0E000086000BFFEE7DF
:1007E00030380240000802400838014000B5024697
:1007F0003D4800684FF6DF7108403B4908606420BF
:10080000FFF7FBFE3848001F0068012191400840B7
:10081000A8B93548006840F0F00033490860012A63
:1008200001D1012000BD022A01D10420FAE7032AE8
:1008300001D10720F6E7042A01D10A20F2E764205B
:10084000FFF7DBFE284800684FF6BF7108402649D5
:100850000860081F0068012191400840A8B922489B
:10086000006840F0F00020490860012A01D1022010
:10087000D8E7022A01D10520D4E7032A01D10820B4
:10088000D0E7042A01D10020CCE76420FFF7B5FEB1
:10089000154800684FF67F71084013490860081F2B
:1008A0000168012090400140A9B90F48006840F05C
:1008B000F0000D490860012A01D10320B2E7022AA5
:1008C00001D10620AEE7032A01D10920AAE7042AB4
:1008D00001D10C20A6E70448006840F0F00002496E
:1008E00008604FF0FF309DE71408024000B50C216E
:1008F0000120FFF7FFFD0C210220FFF7FBFD0C217B
:100900000320FFF7F7FD0C210420FFF7F3FD00BDE6
:1009100010B50446204600F005F8204600F062F8C5
:1009200010BD000010B504462B48006840F00100DF
:100930002949086028481430006840F01000264912
:10094000143108602548006840F40010234908600D
:100950000846406840F4806048600846806840F47B
:10096000001088600846406A40F4E0611B4841621C
:1009700019480C38006840F0100017490C3908601D
:100980000846006820F0100008601548C06840F470
:1009900000501349C8600020086148610846C068DB
:1009A00020F48070C86040F2836088600846C068A8
:1009B00040F00400C86000212520FFF73DFD252000
:1009C000FFF722FD2520FFF72BFD0548C06840F00A
:1009D00020000349C86010BD3038024000000240CA
:1009E0000010014010B504462748006840F400306C
:1009F000254908602548006840F020002349086028
:100A00000846806840F0200088600846006A40F48C
:100A1000E06008621C482038006840F400301A4941
:100A2000203908600846006820F400300860184843
:100A3000006840F40050164908600020091D086055
:100A4000091D08601248006820F480701049086091
:100A500040F28360091F0860081D006840F008002C
:100A6000091D086000212620FFF7E6FC2620FFF77D
:100A7000CBFC2620FFF7D4FC0548006840F040007E
:100A80000349086010BD00004038024000000240E9
:100A90000C44004007490968C0F308021143054AA5
:100AA000116000BF0349091F096801F040010029D6
:100AB000F8D07047044400404FF04070E1EE100A57
:100AC00070470000E40A0008000000200800000051
:100AD000D0010008EC0A00080800002060060000B1
:0C0AE000EC010008000000000000000015
:040000050800019559
:00000001FF
