:020000040800F2
:1000000088060020350200083D0200083F02000873
:1000100041020008430200084502000800000000F9
:10002000000000000000000000000000470200087F
:1000300049020008000000004B0200084D020008C1
:100040004F0200084F0200084F0200084F0200084C
:100050004F0200084F020008E9020008B10300083F
:1000600031040008B9040008410500084F020008E7
:100070004F0200084F0200084F0200084F0200081C
:100080004F0200084F0200084F0200080000000065
:100090000000000000000000000000004F02000807
:1000A0004F0200084F0200084F0200084F020008EC
:1000B0004F0200084F0200084F0200084F020008DC
:1000C0004F0200084F0200084F0200084F020008CC
:1000D0004F0200084F0200084F0200080000000015
:1000E0004F0200084F0200084F0200080000000005
:1000F0000000000000000000000000004F020008A7
:10010000000000004F0200084F0200084F020008E4
:1001100000000000000000000000000000000000DF
:100120004F0200084F0200084F0200084F0200086B
:100130004F02000800000000000000000000000066
:100140000000000000000000000000004F02000856
:100150004F0200084F0200084F0200084F0200083B
:100160004F0200084F0200080000000000000000DD
:10017000000000000000000000000000000000007F
:10018000000000004F020008000000000000000016
:100190004F02000800F002F800F03CF80AA090E8D6
:1001A000000C82448344AAF10107DA4501D100F032
:1001B00031F8AFF2090EBAE80F0013F0010F18BFC3
:1001C000FB1A43F001031847000700002007000056
:1001D000103A24BF78C878C1FAD8520724BF30C873
:1001E00030C144BF04680C60704700000023002445
:1001F00000250026103A28BF78C1FBD8520728BF37
:1002000030C148BF0B6070471FB500F057FB1FBDE2
:1002100010B510BD00F031F81146FFF7F5FF00F002
:100220002BFA00F04FF803B4FFF7F2FF03BC00F025
:1002300053F800000948804709480047FEE7FEE7F9
:10024000FEE7FEE7FEE7FEE7FEE7FEE7FEE7FEE786
:1002500004480549054A064B70470000150600088A
:1002600095010008880000208806002088020020F0
:1002700088020020704770477047754600F028F8E4
:10028000AE4605006946534620F00700854618B083
:1002900020B5FFF7DDFFBDE820404FF000064FF02E
:1002A00000074FF000084FF0000B21F00701AC46AB
:1002B000ACE8C009ACE8C009ACE8C009ACE8C009CA
:1002C0008D4670470446AFF300802046FFF7ABFF32
:1002D000004870472800002001491820ABBEFEE707
:1002E000260002007047000008B52B48006840F067
:1002F000010029490860062000F060F927480068DD
:1003000000F00100C8B32648006800902548406905
:1003100000F47040234948610A21009890FBF1F2F3
:1003200001FB12001F49496908431E4948610A211F
:10033000009890FBF1F00090009890FBF1F201FB27
:1003400012001849496941EA0010164948610A211A
:10035000009890FBF1F00090009890FBF1F201FB07
:1003600012001049496941EA00200E4948610E48CF
:100370000068401C0C49086000BF0C4800684FF63C
:10038000F071084009490860084600680649096894
:1003900008430649086008BD143C014010080240AB
:1003A0000000002000000240180000201404024059
:1003B00010B51748006840F0020015490860072092
:1003C00000F0FCF81348006800F00200F8B1124891
:1003D000006838B901201049086000F0FBF90F49A6
:1003E000086014E00E48006838B901200C49086024
:1003F00000F0F0F90B49086009E00B48006830B9DB
:1004000001200949086000F0E5F90849086010BDBD
:10041000143C0140100802401C0000200400002091
:100420002000002008000020240000200C000020F4
:1004300010B51948006840F004001749086008200A
:1004400000F0BCF81548006800F0040010B3144830
:10045000006840B9012012490860022000F0BAF992
:100460001049086016E01048006840B901200E49A4
:100470000860022000F0AEF90C4908600AE00C4860
:10048000006838B901200A490860022000F0A2F98A
:100490000849086010BD0000143C014010080240EB
:1004A0001C00002004000020200000200800002084
:1004B000240000200C00002010B51948006840F00E
:1004C000080017490860092000F078F8154800680E
:1004D00000F0080010B31448006840B90120124928
:1004E0000860032000F076F91049086016E0104813
:1004F000006840B901200E490860032000F06AF945
:100500000C4908600AE00C48006838B901200A4923
:100510000860032000F05EF90849086010BD000083
:10052000143C0140100802401C0000200400002080
:100530002000002008000020240000200C000020E3
:1005400010B51648006840F01000144908600A20F1
:1005500000F034F81248006800F01000E0B11148D3
:10056000006830B901200F49086000200E4908607A
:1005700012E00E48006830B901200C4908600020E4
:100580000B49086008E00B48006828B901200949B8
:10059000086000200849086010BD0000143C0140BC
:1005A000100802401C000020040000202000002051
:1005B00008000020240000200C00002000F01F0292
:1005C00001219140024A430942F82310704700007C
:1005D00080E200E000F01F020121914042099200F8
:1005E00002F1E022C2F800117047000010B50028A7
:1005F00007DA0A07140E054A00F00F031B1FD45434
:1006000003E00A07130E024A135410BD18ED00E070
:1006100000E400E01448006840F4700012490860EB
:100620001248006840F001001049086000200F499E
:10063000083108600D4800680D4908400B49086002
:100640000C48091D0860081F006820F48020091F5D
:100650000860002005490C3108604FF00060024935
:10066000803908607047000088ED00E000380240E3
:10067000FFFFF6FE103000244F48006840F00100F4
:100680004D4908600846006840F0020008600846CE
:10069000006840F0040008604FF05530474908609A
:1006A0005520474908604FF4A84046490860424831
:1006B0001430006840F480403F49143108604248DB
:1006C000006840F00200404908600846006840F0B9
:1006D000200008600846006840F400700860084682
:1006E000006840F40050086037480838C06840F09F
:1006F000020135480838C1603448006840F01F00E6
:100700003249086031480830006840F01F002F4926
:100710000831086062B600210620FFF767FF062057
:10072000FFF74CFF0620FFF755FF00210720FFF7DA
:100730005DFF0720FFF742FF0720FFF74BFF002177
:100740000820FFF753FF0820FFF738FF0820FFF7C6
:1007500041FF00210920FFF749FF0920FFF72EFF85
:100760000920FFF737FF00210A20FFF73FFF0A208B
:10077000FFF724FF0A20FFF72DFF104840690020F3
:100780000E4948610E481430006800200C491431AD
:1007900008600C481430006840F61F710840094991
:1007A000143108600846006840F0E00008609820B6
:1007B0000749086000BFFEE73038024000000240F1
:1007C000000402400008024008380140003C01409B
:1007D0000000002001B5384800684FF6DF7108407E
:1007E00035490860081F00680121009A91400840BF
:1007F00098B93148006840F0E0002F49086000983F
:10080000012800D108BD0098022801D10420F9E791
:100810000098032801D10720F4E7274800684FF625
:10082000BF71084024490860081F00680121009A30
:1008300091400840A0B92048006840F0E0001E49FF
:1008400008600098012801D10220DBE70098022807
:1008500001D10520D6E70098032801D10820D1E76F
:10086000154800684FF67F71084013490860081F5B
:1008700000680121009A91400840A0B90E48006824
:1008800040F0E0000C4908600098012801D10320E5
:10089000B8E70098022801D10620B3E700980328A2
:1008A00001D10920AEE70448006840F0F000024999
:1008B00008600020A6E70000140802404FF04070D6
:1008C000E1EE100A70470000E80800080000002070
:1008D00028000000D00100081009000828000020AE
:1008E00060060000EC0100080000000000000000AD
:1008F00000000000000000000000000000000000F8
:1009000000000000000000000000000000000000E7
:040000050800019559
:00000001FF
