:020000040800F2
:10000000580700206D0200087502000877020008FA
:10001000790200087B0200087D0200080000000051
:100020000000000000000000000000007F02000847
:100030008102000800000000830200088502000819
:10004000870200088702000887020008870200086C
:10005000870200088702000887020008870200085C
:10006000870200088702000887020008870200084C
:10007000870200088702000887020008870200083C
:1000800087020008870200088702000800000000BD
:1000900000000000000000000000000087020008CF
:1000A000870200088702000887020008870200080C
:1000B00087020008C10300088702000887020008C1
:1000C00087020008870200088702000887020008EC
:1000D000870200088702000887020008000000006D
:1000E000870200088702000887020008000000005D
:1000F000000000000000000000000000870200086F
:10010000000000008702000887020008870200083C
:1001100000000000000000000000000000000000DF
:10012000870200088702000887020008870200088B
:10013000870200080000000000000000000000002E
:10014000000000000000000000000000870200081E
:10015000870200088702000887020008870200085B
:10016000870200088702000800000000000000006D
:10017000000000000000000000000000000000007F
:1001800000000000870200080000000000000000DE
:100190008702000800F002F800F03EF80AA090E89C
:1001A000000C82448344AAF10107DA4501D100F032
:1001B00033F8AFF2090EBAE80F0013F0010F18BFC1
:1001C000FB1A43F001031847F8020000180300006F
:1001D000103A24BF78C878C1FAD8520724BF30C873
:1001E00030C144BF04680C60704700000023002445
:1001F00000250026103A28BF78C1FBD8520728BF37
:1002000030C148BF0B6070471FB500F053F900F0D4
:1002100062F81FBD10B510BD00F069F81146FFF778
:10022000F3FF00F0D3F800F087F803B4FFF7F2FF14
:1002300003BC00F08DF800000B49D1F800C04A68FB
:100240005CF8043B1068184442F8040B8C4528BF46
:10025000A1F1DC0C8A4228BFA1F1DC02C1F800C088
:100260004A6020F000407047EC00002009488047B9
:1002700009480047FEE7FEE7FEE7FEE7FEE7FEE788
:10028000FEE7FEE7FEE7FEE704480549054A064BA0
:10029000704700005D030008950100085801002028
:1002A0005807002058030020580300200B4910B5C0
:1002B000A1F17C020A4CC2E93712372106E000EBBB
:1002C000104342F82130074B00FB03400B1EA1F105
:1002D0000101F4DC10BD0120E8E700008C000020E3
:1002E000E119D666CD0D010070477047704775461D
:1002F00000F028F8AE4605006946534620F0070096
:10030000854618B020B5FFF7BFFFBDE820404FF08D
:1003100000064FF000074FF000084FF0000B21F0EF
:100320000701AC46ACE8C009ACE8C009ACE8C009BC
:10033000ACE8C0098D4670470446AFF30080204604
:10034000FFF773FF00487047F4000020704700007B
:1003500001491820ABBEFEE72600020014480068E1
:1003600040F47000124908601248006840F0010033
:100370001049086000200F49083108600D480068E6
:100380000D4908400B4908600C48091D0860081F0A
:10039000006820F48020091F0860002005490C3106
:1003A00008604FF000600249803908607047000023
:1003B00088ED00E000380240FFFFF6FE1030002418
:1003C000002001490860704710040040FFF734FF27
:1003D00040F2E73190FBF1F201FB1200401C304982
:1003E000086072B62F48006840F002002D4908608E
:1003F0002D48006820F47F602B490860084600689B
:1004000040F42A60086028482030006840F400303A
:1004100025492031086023481030006840F0020070
:1004200020491031086040F23F60204908601C48B4
:100430000068401E091D086000201C49091F086053
:1004400060201A49103908600120184908390860ED
:1004500017490968124A1268881A002801DB014608
:1004600000E04142491E114A0C32116001200F493F
:10047000283908600D481C38006840F001000B491D
:100480001C3908601D20012181404209920002F1BF
:10049000E022C2F8001100BF62B600BFFEE7000014
:1004A00000000020303802400004024028040040D0
:1004B000040000204FF04070E1EE100A7047000089
:1004C000E00400080000002010000000D001000837
:1004D000F00400081000002048070000EC010008AC
:1004E0000000000096000000000000000000000076
:040000050800019559
:00000001FF
