:020000040800F2
:1000000070060020350200083D0200083F0200088B
:1000100041020008430200084502000800000000F9
:10002000000000000000000000000000470200087F
:1000300049020008000000004B0200084D020008C1
:100040004F0200084F0200084F0200084F0200084C
:100050004F0200084F0200084F0200084F0200083C
:100060004F0200084F0200084F0200084F0200082C
:100070004F0200084F0200084F0200084F0200081C
:100080004F0200084F0200084F0200080000000065
:100090000000000000000000000000004F02000807
:1000A0004F0200084F0200084F0200084F020008EC
:1000B0004F0200084F0200084F0200084F020008DC
:1000C0004F0200084F0200084F0200084F020008CC
:1000D0004F020008E10300080504000800000000CA
:1000E0004F0200084F0200084F0200080000000005
:1000F0000000000000000000000000004F020008A7
:10010000000000004F0200084F0200084F020008E4
:1001100000000000000000000000000000000000DF
:100120004F0200084F0200084F0200084F0200086B
:100130004F02000800000000000000000000000066
:100140000000000000000000000000004F02000856
:100150004F0200084F0200084F0200084F0200083B
:100160004F0200084F0200080000000000000000DD
:10017000000000000000000000000000000000007F
:10018000000000004F020008000000000000000016
:100190004F02000800F002F800F03CF80AA090E8D6
:1001A000000C82448344AAF10107DA4501D100F032
:1001B00031F8AFF2090EBAE80F0013F0010F18BFC3
:1001C000FB1A43F001031847F82100001822000031
:1001D000103A24BF78C878C1FAD8520724BF30C873
:1001E00030C144BF04680C60704700000023002445
:1001F00000250026103A28BF78C1FBD8520728BF37
:1002000030C148BF0B6070471FB502F013F81FBD27
:1002100010B510BD00F044F81146FFF7F5FF01F0EE
:10022000A7F800F062F803B4FFF7F2FF03BC00F098
:1002300063F800000948804709480047FEE7FEE7E9
:10024000FEE7FEE7FEE7FEE7FEE7FEE7FEE7FEE786
:1002500004480549054A064B704700007D03000825
:100260009501000870000020700600207002002038
:100270007002002070477047704710B500F008F812
:10028000006810BD10B5044600F002F8046010BD0F
:100290000048704710000020004870471000002000
:1002A0007546FFF7F9FFAE4605006946534620F054
:1002B0000700854618B020B5FFF7CAFFBDE820400B
:1002C0004FF000064FF000074FF000084FF0000B12
:1002D00021F00701AC46ACE8C009ACE8C009ACE8C5
:1002E000C009ACE8C0098D4670470446AFF30080F2
:1002F0002046FFF798FF000001491820ABBEFEE73B
:1003000026000200704700000548006840F0020027
:10031000034908600846006840F004000860704720
:100320003038024000F01F0201219140024A430987
:1003300042F823107047000080E200E000F01F0246
:10034000012191404209920002F1E022C2F800111D
:100350007047000010B5002807DA0A07140E054A96
:1003600000F00F031B1FD45403E00A07130E024AC8
:10037000135410BD18ED00E000E400E014480068DC
:1003800040F47000124908601248006840F0010013
:100390001049086000200F49083108600D480068C6
:1003A0000D4908400B4908600C48091D0860081FEA
:1003B000006820F48020091F0860002005490C31E6
:1003C00008604FF000600249803908607047000003
:1003D00088ED00E000380240FFFFF6FE10300024F8
:1003E00010B50748006800F0200040B12520FFF755
:1003F00099FF03494968C1F3080000F03BFF10BDB5
:100400000010014010B52620FFF78CFF10BD03B48B
:1004100001984100009850EAC12018BF04204A0DFD
:1004200018BF40F0010040F2FF72B2EB515F08BF0D
:1004300040F00200012808BF052002B0704700000C
:100440002DE9F04D2DED040B2DED0C8B96B0DDE973
:100450002350259CDDF888A025F0004624F00048B4
:10046000BAF1000F14BF0121002101EB4502FE4942
:1004700053184A1093422AD3002814BF01230023A3
:1004800003EB44030B44F9498B4220D358EA0001A3
:100490009FEDF78B6FD0DFF8E0B35D4503D1BAF184
:1004A000000F05D187E0BAF1000F08BF002100D08E
:1004B000012101EB450111F5001F08D8002814BFE8
:1004C0000121002101EB440111F5001F0BD99DED25
:1004D000241B9DED220B16B0BDEC0C8B04B0BDE8C7
:1004E000F04D00F05DBE0027002DBCBFE3498845FC
:1004F00021DAE3498845A8BF02271CDAC3451ADC84
:10050000E04901EB2851142908DDC1F1340220FA39
:1005100002F101FA02F282420DD108E058B9C1F1AC
:10052000140228FA02F101FA02F2424503D101F065
:100530000101C1F1020756EA0A011DD1002C1BDAA4
:10054000002D18BF022F01D0012F0AD00220FFF783
:1005500099FE16B0BDEC0C8B04B0BDE8F04D00F078
:1005600007BE0220FFF78EFE00F002FE51EC100BDA
:1005700001F0C8F883E01EE09FEDC39B9FEDC4AB84
:10058000002872D1BD4880452DD105F1804010F57D
:10059000801008BFBAF1000F0DD0B34515DC002C58
:1005A000A1BF9DED240B16B0BDEC0C8B04B0A8BF11
:1005B000BDE8F08D12E0B0EE480AF0EE680A16B021
:1005C000BDEC0C8B04B0BDE8F08D002C06DA9DED7F
:1005D000240B51EC100B01F095F850E0AE48784434
:1005E00090ED000BEBE7D8454FD1002C4ADA2EB145
:1005F00086423BD1BAF1000F44D126E0BAF1000F98
:1006000013D00220FFF73EFE00F0E6FD8DED020B59
:100610009DED220B8DED000B10EE900A039961F316
:100620001E0003909DED020BC9E78DED029B9DED31
:10063000220B19EE901A10EE900A8DED000B61F36B
:100640001E0003909DED020BB9E78DED02AB9DED11
:10065000220B1AEE901A10EE900A8DED000B61F34A
:100660001E0003909DED020BA9E729E00ADA9DED3B
:10067000220B51EC180B53EC102B01F00BF941EC51
:10068000100B9CE79DED220B99E7864218DAB4F136
:10069000804F0DD0A4F10050B0F1FF5010D1002DCB
:1006A0000EDB9DED220B51EC100B00F021FFE6E775
:1006B0009DED220B53EC102B51EC100B00F0AEBC57
:1006C0009DED220B51EC100B00F0C8FDBAF1000FAC
:1006D000CDE90C0134D19FED720BDEB1A6F1E04003
:1006E000B0F17F602CD1002D01DD002C0DDA002D42
:1006F00001DD002C1FDB002D16DA002C14DB012F8E
:1007000008BF9FED690B3FF45AAFB0EE490AF0EE17
:10071000690A54E7022F18BF002D0CD0012F0AD10F
:10072000002DFFF64CAF06E0002DB8BF002C07DA15
:10073000012F3FF444AFB0EE4A0AF0EE6A0A3EE7FA
:10074000012000EBE57A5AEA07000CD05848002552
:1007500080457CDD57495848884514DDB0420DDBA3
:10076000002C19DB2BE00120FFF78CFD16B0BDEC4F
:100770000C8B04B0BDE8F04D00F01EBDB34502DCAB
:10078000002C09DC1BE0864202DA002C17DA03E0B9
:100790005E4527DD002C12DD0220FFF773FD00F01F
:1007A0001BFD10EE901A19EE900A8DED020B8DEDE7
:1007B000009B61F31E0003909DED020BFFE60220FB
:1007C000FFF760FD00F018FD10EE901A18EE900A89
:1007D0008DED020B8DED008B61F31E0003909DEDFE
:1007E000020BECE69DED220B53EC182B51EC100B99
:1007F00001F036FC9FED320BCDE90A0153EC102BD2
:100800009DED0A0B51EC100B01F01EFA9FED2E1B13
:1008100053EC112B01F04CFB9DED0A1B53EC112BFB
:1008200001F012FA9FED2A1B53EC112B01F040FB53
:100830009DED0A0B41EC190B53EC102B51EC100BF6
:1008400001F002FA53EC192B01F0FEF900E07EE012
:100850009FED210B41EC1A0B53EC102B9DED0A0B75
:1008600051EC100B3CE00000FFFF1F00FFFF0F00EA
:10087000000000000000F03F0000F03F0000F07FAB
:100880000000404301FCFFFF000000000000F07F7B
:100890000000000000000000D61D00000000000065
:1008A0000000000000000080000000000000F0FFD9
:1008B0000000E0410000F043FFFFEF3F00000000B8
:1008C000000000000000D03F555555555555D53F07
:1008D000000000000000E03F000000604715F73F07
:1008E00001F0B2F941EC190B9FEDFD0B51EC1A0B25
:1008F00053EC102B01F0A8F941EC1A0B9FEDFA0B09
:1009000053EC102B9DED0A0B51EC100B01F09CF9F0
:1009100053EC1A2B01F0A4FB41EC1A0B51EC190B10
:1009200053EC1A2B00F0FAFE0690CDE906519DED2E
:10093000060B53EC192B51EC100B01F091FB53EC0F
:100940001A2B01F0B5FA41EC100B00F09FB9002012
:10095000B6F5801F0EDA9FEDE60B53EC102B9DEDE4
:100960000C0B51EC100B01F06FF9CDE90C016FF09D
:1009700034000E4600EB2650A0F2FF38C6F31300F9
:10098000DD4940F07F6646F040568842D8BF0024DB
:1009900009DDDA498142C8BF012404DC0024A6F540
:1009A000801608F10108D648784400EBC4000D9683
:1009B00090ED00BB9DED0C0B53EC1B2B51EC100B81
:1009C00001F04EFB9DED0C0B41EC1A0B53EC1B2B75
:1009D00051EC100B00F0A2FE41EC100B51EC180B87
:1009E00053EC102B00F056FF41EC1C0B51EC1A0B92
:1009F00053EC1C2B01F028F941EC190BC1488DED8B
:100A0000109B7844109590ED000B4FF0005040EA99
:100A1000660000EB84408DED0A0B00F500200B9082
:100A20009DED0A0B53EC1B2B51EC100B01F018FB46
:100A30009DED0C1B53EC112B01F03AFA41EC100B1D
:100A400053EC102B9DED100B51EC100B01F0FCF84A
:100A50009DED0A0B41EC1B0B53EC102B9DED100B85
:100A600051EC100B01F0F0F853EC1A2B01F020FAC6
:100A700053EC1B2B01F0F4FA53EC1C2B01F0E4F8BF
:100A800041EC1B0B53EC192B51EC190B01F0DCF86A
:100A900041EC1A0B9C480621B0EE4A0AF0EE6A0AB5
:100AA000784400F0E9FAB0EE40CAF0EE60CA53ECC8
:100AB0001A2B51EC1A0B01F0C7F853EC1C2B01F068
:100AC000C3F89DED100B41EC1A0B53EC192B51ECB4
:100AD000100B00F023FE53EC1B2B01F0B5F853EC88
:100AE0001A2B00F01BFE9DED100B41EC1A0B53EC82
:100AF000102B51EC100B01F0A7F841EC1C0B9FEDF3
:100B000084DB53EC1D2B00F009FE53EC1A2B00F094
:100B100005FE0A90CDE90A519DED0A0B53EC1D2B01
:100B200051EC100B01F09CFA53EC1C2B01F098FADD
:100B300053EC1A2B01F0BCF99DED0A0B41EC1C0B98
:100B400053EC102B9DED100B51EC100B01F07CF8C9
:100B500041EC1A0B53EC192B51EC1C0B01F074F8FF
:100B60009DED0A0B41EC190B53EC102B51EC1B0BB8
:100B700001F06AF853EC192B00F0D0FD41EC190B91
:100B800051EC1A0B53EC192B00F0C8FD1090CDE975
:100B900010519DED100B53EC1A2B51EC100B01F082
:100BA0005FFA53EC192B01F083F941EC190B9FED1F
:100BB0005A0B53EC102B9DED100B51EC100B01F068
:100BC00043F841EC1A0B9FED560B51EC190B53EC0B
:100BD000102B01F039F841EC190B9FED530B53EC3E
:100BE000102B9DED100B51EC100B01F02DF853EC78
:100BF000192B00F093FD41EC100B4D48784400EBAD
:100C0000C40090ED001B51EC100B53EC112B00F0C5
:100C100085FD41EC190B404600F0C3FFCDE90A0108
:100C200053EC192B51EC1A0B00F078FD41EC100B32
:100C30004048784400EBC40090ED00BB51EC100B31
:100C400053EC1B2B00F06AFD9DED0A1B53EC112B9E
:100C500000F064FD0690CDE906519DED0A0B53ECC2
:100C6000102B9DED060B51EC100B01F0F9F953EC34
:100C70001B2B01F0F5F953EC1A2B01F0F1F953ECB1
:100C8000192B01F015F941EC100B00BF781EB0EEE6
:100C900048AAF0EE68AA5AEA000008BF9FED268B2A
:100CA0009DED241B53EC102B8DED001B00959DED4D
:100CB000240B51EC100B00F0C7FF9DED000B41EC35
:100CC000190B53EC102B9DED240B51EC100B01F084
:100CD000C7F99DED061B53EC112B00F0B5FF2FE07B
:100CE000FE822B654715F73F44DF5DF80BAE543E9F
:100CF00000000000000040438E9803007AB60B000D
:100D000084190000B2190000BC18000000000000A7
:100D10000000000000000840000000E009C7EE3FAE
:100D2000FD033ADC09C7EE3FF5015B14E02F3EBE40
:100D3000501700000A170000000000000000F0BF7C
:100D400053EC192B00F0EAFC9DED060B41EC190B5E
:100D500053EC102B9DED000B51EC100B00F074FFC9
:100D6000CDE910019DED100B51EC190B53EC102B3C
:100D700000F0D4FCCDE902010C46AB498C422FDBDC
:100D8000611A084318D19DED100B53EC102B9DED0B
:100D9000020B51EC100B01F063F941EC1B0B9FEDC2
:100DA000A40B51EC190B53EC102B00F0B7FC53ECD7
:100DB0001B2B01F047F82DD20220FFF763FA00F059
:100DC0000BFA10EE901A18EE900A8DED020B8DEDD5
:100DD000008B61F31E0003909DED020BFFF7EFBB4C
:100DE000954A24F00041914214D394492144084388
:100DF0007FF4E5AC9DED100B53EC102B9DED020B39
:100E000051EC100B01F02CF953EC192B01F01AF8EE
:100E10007FF6D5AC24F0004089498A4A002601EBD0
:100E2000205182422BDA481C4FF4801121FA00F045
:100E30002044854AC0F30A517A44A1F2FF3192ED71
:100E4000000B824A8DED0A0BCA4020EA0202C0F371
:100E5000130040F48010C1F1140120FA01F60B9246
:100E6000002CB8BF76429DED0A0B53EC102B9DED84
:100E7000100B51EC100B01F0F3F8CDE910019DEDD2
:100E8000100B51EC190B53EC102B00F047FC9FEDAD
:100E9000700B0A90CDE90A5153EC102B9DED0A0B13
:100EA00051EC100B00F0D0FE41EC1B0B9FED6A0BD8
:100EB00053EC102B9DED0A0B51EC100B00F0C4FE0F
:100EC0009DED100B41EC1C0B53EC102B9DED0A0B10
:100ED00051EC100B01F0C4F853EC192B00F0E8FFB3
:100EE0009FED5F1B53EC112B00F0AEFE53EC1C2B5F
:100EF00000F014FC41EC190B51EC1B0B53EC192BBB
:100F000000F00CFCCDE902019DED020B53EC1B2B14
:100F100051EC100B01F0A4F853EC192B00F0C8FFB2
:100F20009DED020B41EC190B53EC102B51EC100B07
:100F300000F08AFECDE90A014B489DED0A0B052120
:100F4000784400F099F89DED0A1B51EC100B53EC1E
:100F5000112B00F079FE9DED021B53EC112B00F0DC
:100F6000A7FFCDE906019DED020B53EC192B51ECC7
:100F7000100B00F069FE53EC192B00F0CFFB9FED36
:100F80003C0B41EC190B53EC102B9DED060B51EC77
:100F9000100B01F065F89DED060B41EC1B0B53ECBB
:100FA000102B9DED020B51EC100B00F04DFE53EC9D
:100FB0001B2B00F06FFC53EC192B01F051F89DED49
:100FC000021B53EC112B01F04BF853EC1A2B00F0E1
:100FD0006FFFCDE9020101EB065001150029C8BFE2
:100FE000039015DC9DED020B324651EC100B01F025
:100FF00058F9FFF70CFA042808BF00F0FDF8324654
:101000009DED020B51EC100B01F04BF9CDE9020103
:101010009DED020B51EC180B53EC102B00F014FE5D
:10102000FFF72DBB00000000000090400000000012
:10103000FE822B654715973C00CC904000346F3FF3
:1010400001FCFFFF0000E03F7C150000FFFF0F00E8
:1010500000000000432EE63F396CA80C615C20BE06
:10106000EF39FAFE422EE63F4C140000000000006B
:10107000000000000000004070B504462DED028B1A
:101080004D1E00EBC500B0EE408AF0EE608A90ED98
:10109000000B35F0060017D053EC182B51EC100B59
:1010A00000F0D2FD41EC100B6D1E04EBC50090ED7D
:1010B000001B51EC100B53EC112B00F02FFB41ECFB
:1010C000100B35F00600E7D1022D36D0042D1CD0D0
:1010D000062D1CBFBDEC028B70BD53EC182B51ECE0
:1010E000100B00F0B1FD94ED0A1B53EC112B00F036
:1010F00015FB53EC182B00F0A7FD94ED081B53ECE7
:10110000112B00F00BFB41EC100B53EC182B51ECA6
:10111000100B00F099FD94ED061B53EC112B00F021
:10112000FDFA53EC182B00F08FFD94ED040B53ECFB
:10113000102B00F0F3FA41EC100B53EC182B51EC90
:10114000100B00F081FD94ED021B53EC112B00F00D
:10115000E5FA53EC182B00F077FD94ED001B53ECEF
:10116000112B00F0DBFABDEC028B41EC100B70BDD3
:101170009FED070B10B553EC102B9FED070B51ECB7
:10118000100B00F087FB41EC100B10BD00000000BD
:101190000000000000000000000000000000F03F20
:1011A00010B553EC112B51EC100B00F0B7FA41ECD9
:1011B000100B10BD000000009FED050B10B553ECA7
:1011C000102B51EC100B00F065FB41EC100B10BD27
:1011D00000000000000000009FED050B10B553EC6F
:1011E000102B51EC100B00F02FFD41EC100B10BD3B
:1011F00000000000000000709FED050B10B553ECDF
:10120000102B51EC100B00F01FFD41EC100B10BD2A
:1012100000000000000000100748006800EB4000DC
:1012200006490968022202FB0100054909680122FA
:1012300002FB0100704700000000002004000020B5
:101240000800002008B500210091009102E00099FB
:10125000491C009100998142F9DB08BD82B0CDE9BB
:10126000000121F0004001909DED000B02B051EC17
:10127000100B704770B50446A0B200F031FA4EF67C
:101280006020FFF7DFFF35480068B8B9002C09DBA4
:10129000092C07DC21463248006800F0EFF830499D
:1012A00008604BE00A2C03D100202D49086045E07E
:1012B0000C2C43D10120294908603FE027480068F1
:1012C000012817D1002C09DB092C07DC2146254811
:1012D000006800F0D3F8234908602FE00A2C03D1FE
:1012E00000202049086029E00C2C27D102201B494E
:1012F000086023E01948006802281FD1002C09DB90
:10130000092C07DC21461848006800F0B7F8164998
:10131000086013E00A2C03D10020134908600DE097
:101320000C2C0BD1FFF778FF0546284600F046F855
:1013300000200A49086000F093F800BF0B480068DD
:101340004FF6F071084009490860084600680349F3
:10135000096808430549086070BD00000C000020C2
:1013600000000020040000200800002014040240B7
:10137000FEF7CAFF0E48006840F480400C49086040
:101380000C48006800200B4908600846006840F0DF
:10139000553008600848006840F05530064908603C
:1013A00072B6082000F0DBF862B600BFFEE700006E
:1013B00044380240000402400008024030B52DEDE0
:1013C000048B81B0044600200090204600F05CF8B9
:1013D0000320009039E0009800F0E3FB41EC190B8A
:1013E000B0EE491AF0EE691A9FED1B0BFFF728F8D3
:1013F000B0EE408AF0EE608A51EC180B00F0A2FBD0
:1014000094FBF0F5009800F0CCFB41EC190BB0EE2A
:10141000491AF0EE691A9FED100BFFF711F8B0EEC4
:10142000408AF0EE608A51EC180B00F08BFB94FBC5
:10143000F0F100FB1144A8B200F052F943F69820F5
:10144000FFF700FF0098401E009000980028C2DAC5
:1014500001B0BDEC048B30BD000000000000244052
:101460000020034908600349086003490860704789
:10147000000000200400002008000020024602EBCB
:10148000820001EB400070470022184B1A604FF4B5
:101490007A7290FBF2F190FBF2F302FB1300134A15
:1014A000126842EA0132114B1A60642290FBF2F199
:1014B00090FBF2F302FB13000C4A126842EA01228D
:1014C0000A4B1A600A2290FBF2F190FBF2F302FB46
:1014D0001300064A126842EA0112044B1A600146E0
:1014E0001A4612680A431A60704700001408024046
:1014F00000B52DED048B83B041EC190B00F0E4FC3A
:1015000041EC180B18EE100A18EE901A8DED008BB6
:10151000002818BF0120084320F00040C0F17F6080
:1015200000F1E040C00F14D019EE101A19EE900A25
:101530008DED009B002918BF0121084320F00040D9
:10154000C0F17F6000F1E040C00F04BF0120FEF752
:1015500099FE51EC180B03B0BDEC048B00BD10B527
:101560000446204600F004F8204600F061F810BD63
:1015700010B504462B48006840F001002949086076
:1015800028481430006840F01000264914310860E3
:101590002548006840F40010234908600846406868
:1015A00040F4806048600846806840F4001088601D
:1015B0000846406A40F4E0611B48416219480C3813
:1015C000006840F0100017490C39086008460068B0
:1015D00020F0100008601548C06840F4005013491E
:1015E000C8600020086148610846C06820F4807027
:1015F000C86040F2836088600846C06840F004001C
:10160000C86000212520FEF7A5FE2520FEF78AFEF2
:101610002520FEF793FE0548C06840F020000349EE
:10162000C86010BD30380240000002400010014088
:1016300010B504462748006840F40030254908608A
:101640002548006840F0200023490860084680686B
:1016500040F0200088600846006A40F4E0600862BC
:101660001C482038006840F400301A4920390860CE
:101670000846006820F4003008601848006840F40C
:101680000050164908600020091D0860091D086007
:101690001248006820F480701049086040F28360AE
:1016A000091F0860081D006840F00800091D086057
:1016B00000212620FEF74EFE2620FEF733FE2620D0
:1016C000FEF73CFE0548006840F040000349086012
:1016D00010BD000040380240000002400C440040B1
:1016E00007490968C0F308021143054A116000BFA9
:1016F0000349091F096801F040010029F8D070472B
:101700000444004081F00041704780F00040704781
:1017100021F00041704720F00040704710B591EA79
:10172000030F48BF83F0004300F1A284841A71EBD9
:10173000030C05D2121943EB0C03001B61EB0C01E7
:10174000DFF824E14FEA1154A4EB135C1EEA430FC7
:1017500018BF9EEA445F73D023EA0E03DCF1200E2B
:1017600021EA045143F4801332D322FA0CFE10EB29
:101770000E0023FA0CFE41EB0E01CCF1200E03FA11
:101780000EFE10EB0E0051F10001B1F5801FCCF1FF
:10179000200E32D201EB045112FA0EF2BDE81040D5
:1017A00058BF7047401C38BF5FEA420218BF7047FD
:1017B000002814BF20F0010041F100014FEA41036D
:1017C00013F5001F38BF7047A1F1C04100F034BBD2
:1017D000012A43EB0302ACF1200CDCF11F0E32BFF7
:1017E0004FF0000E23FA0CF310EB030041EB045111
:1017F000B4EB115FD0D0A1EB045101F58011490881
:101800005FEA300001EB04510ED350F1000038BF05
:1018100012FA0EFE08D1BDE81040C9E7401C38BFDF
:101820005FEA4202CAD1C3E7BDE810404FEA410374
:1018300013F5001F38BF7047A1F1C04100F0FCBA9A
:101840009EEA445F08D011EA5E0FBDE8104004BF75
:1018500001F0004100207047BDE8104070B500F075
:101860009DFA00BF64FBBE3E0000E0FF02494FF05E
:10187000000000F0E4BC00BF0000F87F491058BF32
:10188000C1F140415B1058BFC3F140438B42EFF3BD
:10189000008070472DE9C04130B4DFF8A0C23CEAB7
:1018A000111418BF3CEA131400F0EC8081EA030520
:1018B0001CEA111444EAD57418BF1CEA131500F091
:1018C000C780A4EB05044FF0004545EAC12145EA75
:1018D000C32341EA505143EA525304F17F749942C1
:1018E00004F500344FEAC0204FEAC22208BF9042FC
:1018F00000F09C804FEA13650FF24016765D4FEAC8
:10190000134506FB05F7C7F1807706FB07F74FEA9B
:10191000D737A7FB03687642C8F58038A7FB06CE09
:1019200038BFA8F1010807FB08E64FF0000EA6FB40
:10193000028CE6FB03CEDCF1000CCEF1004E38BF8A
:10194000AEF1010EA6FB0C584FF000074FF000055A
:10195000E6FB0E87A1FB08C6A0FB07CE16EB0E0622
:1019600045F10005E1FB076515F1E04E7EBFA4F5EA
:1019700080345FEA46066D4116F1800745F10005A7
:101980004FEA17274FEA066647EA0567A6F1DE46E3
:10199000B6F1805F4FEA15251FD9384624F0010CB7
:1019A00005EBC471BCF1FE6F01EB0C1102D8F0BC69
:1019B000BDE8008124425CBF01F5801E9EEAC47F21
:1019C00002D4F0BCBDE80081244238D4F0BCA1F1BF
:1019D000C041BDE8004100F02FBA4FEAD22242EAEE
:1019E00043524FEAD323A7FB02864FEAD02040EAB6
:1019F000415007FB03661EEA0E0F4FEAD12105FB9B
:101A0000026658BFA6EB0056B6EB00564FEA520EE0
:101A10004EEAC37E18EB0E0E56EB530EBDD518EBF7
:101A200002085E417F1C55F10005B6E74FF48015B2
:101A30004FF000074FF000064FF00008ADE7F0BC94
:101A40004FF0000001F1C04101F00041BDE800810C
:101A500011EA0C1F0CEA131500D00CE013EA0C1F5E
:101A600000F025804FF00000F0BC81EA030101F096
:101A70000041BDE80081F0BCBDE8004181EA0301FE
:101A800000F0DAB9F0BCBDE8004170B500F086F9AD
:101A9000097EFC3E00F007B881EA03014FF0000028
:101AA00001F00041704781EA030100F0C5B9F0BCC4
:101AB000BDE800414FF0000021497047FFFDFBF9F0
:101AC000F7F5F4F2F0EEEDEBE9E8E6E4E3E1E0DE71
:101AD000DDDBDAD8D7D5D4D3D1D0CFCDCCCBCAC8E3
:101AE000C7C6C5C4C2C1C0BFBEBDBCBBBAB9B8B70A
:101AF000B6B5B4B3B2B1B0AFAEADACABAAA9A8A8FD
:101B0000A7A6A5A4A3A3A2A1A09F9F9E9D9C9C9BCA
:101B10009A99999897979695959493939291919075
:101B20008F8F8E8E8D8C8C8B8B8A89898888878706
:101B30008685858484838382828181800000FF077B
:101B40000000F87F4FEA41034FEA5353A3F5806347
:101B5000D3F11E03C8BFD3F1210C0CDD4FF00042BE
:101B600042EAC12242EA505232FA03FC8CEAE17C9A
:101B7000ACEBE1707047102BC4BF0020704703F539
:101B8000787CBCF1FF3F04D06FF0004282EA210074
:101B9000704770B500F002F9499224800020704728
:101BA000F2E710F0004248BF4042B0FA80F310FA6A
:101BB00003F10AD0C3F11D0303F580634FEA4150DE
:101BC00002EB035202EBD12170474FF00000704747
:101BD00051EA030C17D41CF5801F58BFBCF5801FB9
:101BE00000F10680994218BF704708BF90427047C5
:101BF00007D711F5801F58BF13F5801F19D49942DC
:101C00007047894270471CF5801F08D5BCF5801FBE
:101C1000F7D58B4218BF704708BF824270474FF418
:101C2000001C1CEB410F38BF1CEB430F01D28B4251
:101C3000704770B500F0B2F8922449004FF000519F
:101C40004FF08053FFF71ABEDFF848C170B51CEAA9
:101C5000111E1EBF1CEA13159EEA0C0F95EA0C0F0D
:101C600000F06F8081EA030423EA4C134EEAD47E2D
:101C700021EA4C1141F4801143F48013AE44A1FBDE
:101C8000024CA0FB0365AEF17F7E361955EB0C05C7
:101C9000A1FB034C4CF10003A0FB021C16EB0C064D
:101CA000654153F10003094218BF46F0010613F4E1
:101CB000007F0BD14FEA03314FEA0530340341EA8C
:101CC000155140EA16506FF003020AE04FEAC321B3
:101CD0004FEAC520F40241EA555140EA56506FF0F0
:101CE000020202EB2E4201EB025585EACE710AD0C8
:101CF0005FEA440C18BF24F0004450F1000041F1A9
:101D0000000120EAD47040F2FE7C624500D270BD32
:101D1000A84214BF4FF080444FF04044002E08BF4B
:101D20000024BEF1806FA8BFA1F1C041BDE87040A2
:101D300080F282804FF0000001F1C04101F00041CB
:101D400070479EEA0C0F0CEA131518BF95EA0C0FAA
:101D500006D04FF0000081EA030E0EF0004170BD86
:101D600000F01CF88900013E00F007B800F009B847
:101D70004FEA430C5FEA5C5C08D081EA030100F0A3
:101D80005BB84FEA410C5FEA5C5CF6D14FF00000B3
:101D9000014970470000FF070000F87F0EF1020EB6
:101DA0002EF0030E5EF8046B364205D4012A43EB95
:101DB000030515F5001F12D8012841EB010C1CF595
:101DC000001F0CD80ED14FEAD17C15F5001F0CEB8B
:101DD0004C0C0CF1020C08BF4CEBD37C04E04FF030
:101DE000080C01E04FEAD37C0CEB4C0526FA05F613
:101DF00006F00706B6F1040C06D20EEB860CBDE821
:101E000070404CF0010C6047DFE80CF0090B020257
:101E10004FF000414FF00000A1F5002170BD1946C0
:101E20001046012851EB010418BFD4F5001484BFFB
:101E3000002001F0004170BD0808A0F500114FEA34
:101E40003101704753EA010C17D41CF5801F58BFAD
:101E5000BCF5801F00F106808B4218BF704708BF99
:101E60008242704707D713F5801F58BF11F5801FB6
:101E700019D48B4270479B4270471CF5801F08D5D0
:101E8000BCF5801FF7D5994218BF704708BF904234
:101E900070474FF4001C1CEB430F38BF1CEB410F85
:101EA00001D2994270470FB40CBC03BCFFF7C1BE0E
:101EB00091EA030F10B581F000413FF537AC83F094
:101EC000004300F0D5B800002DE9F04101F5801C79
:101ED000BCF5001FC0F2A9804FEA115C21EA0C5149
:101EE0000CF1FD0C41F480115FEA5C0C0CF5C07C38
:101EF00001D34000494130A4890241EA9051870250
:101F00008E0E0A0CA45D04FB04F602FB06F6C6F175
:101F10004046A4FB0662F60D46EA422606FB06F49E
:101F2000A4FB01235242C3F1404338BF5B1EA6FB12
:101F300002420024E6FB0324D20B42EA4446A6FBFD
:101F40000623A1FB02E2A3FB07E4E3FB6142644238
:101F5000C2F1404E38BFAEF1010EA6FB04234FF094
:101F60000002E6FB0E32A2FB03463400E2FB626491
:101F7000A1FB06E6A4FB07E8E4FB61687642C8F132
:101F8000405838BFA8F10108A2FB06E4A3FB08E50E
:101F9000E2FB6854A1FB05E6A7FB04E8E1FB6486CD
:101FA00018F1200556F10006A809A8F11B08B1098F
:101FB00008F03F08B8F10A0F40EA86601CD901EB2F
:101FC0000C51BDE8F08100BFFCF5EEE8E2DDD8D3AE
:101FD000CFCBC7C3C0BDB9B6B4B1AEACA9A7A5A39A
:101FE000A19F9D9B9A9896959392908F8D8C8B89AB
:101FF0008887868584838281A0FB006800FB01F2CC
:1020000008EB4208B8EB872807D5341858EB0104D1
:10201000D5D5401C51F10001D1E7341A78EB010409
:10202000CDD4401E71F10001C9E75FEA4C0C5FEAB4
:102030009C5C0DD105D34FF0000001F00041BDE8DC
:10204000F081BDE8F04170B5FFF7A8FE6DDBFFBE83
:10205000BDE8F0414FF00000004970470000F87FF4
:1020600010B591EA030F48BF83F000433FF55EAB24
:10207000841A71EB030C07D212198CF0004C43EB5D
:102080000C03001B61EB0C01DFF8A4E14FEA1154D3
:10209000A4EB135C1EEA430F18BF9EEA445F00F0F6
:1020A000B08023EA6E03524221EA0451C3EB6E036F
:1020B00038BF5B1EDCF1200E25D322FA0CFE10EB9C
:1020C0000E0043FA0CFE41EB0E01CCF1200E03FA98
:1020D0000EFE10EB0E0051F10001CCF1200E29D4C0
:1020E00012FA0EF201EB0451BDE8104058BF7047E0
:1020F000401C1CBFB2F1004F704700280CBF491CA8
:1021000020F00100704712EB020E43EB030218BFF0
:102110004FF0010E4EEA4202ACF1200CDCF11E0E33
:1021200054D943FA0CFE10EB0E0051F1FF31CCF103
:102130001E0ED5D50EF1010E12FA0EFE404141EBF6
:10214000010101EB445C5FEA5C5C10D910EBDE70CE
:1021500001EB045138BFBEF1004FBDE8104018BF7D
:10216000704700280CBF491C20F00100704730D296
:102170004FEAD42C11F5001124F400641BD0B1FAFD
:1021800081F20B3AA41AA41ED2F12003914030FA36
:1021900003F31943904001EBCC71002C01EB045187
:1021A000BDE81040A8BF704701F1C0414FF00000EA
:1021B00001F000417047B0FA80F310FA03F100D14A
:1021C00010BDE41A173C4805C90AE4E701EB0451C5
:1021D00010BD491001EB0451BDE810404FEA30003A
:1021E00002E04FF0000170474A0008BF0042F8D0FB
:1021F000B2F5001F28BF704701F000414FF000000A
:1022000070479EEA445F07D011EA5E0FBDE81040B8
:1022100004BF002100207047BDE8104070B5FFF7F3
:10222000BDFD00BF40DFF63E83F000411046704721
:102230000000E0FF4FF04070E1EE100A70470CF034
:102240000F03092B08BF082000F059800A2B0BD080
:10225000082B18BF704708BF1CF0400F0AD04FF082
:1022600000004FF0000170471CF0400F18BF4FF006
:10227000004070471CF0100F08D020F0704300F0B1
:102280007F4242EAD3014FEA4370704700F060405A
:1022900021F07F4242EA000201F07F4040EA727082
:1022A00070474FF0FF0C4CF4E06C1CEA11531CBF5C
:1022B0009CEA030C9445C2BFDA4201EB025170471D
:1022C000002B0DD0BCF1000F0FD0002A01F000410F
:1022D000A4BF41F0E04141F07F614FF00000704742
:1022E00001F000414FF00000704750EA01334FF019
:1022F0009B0C18BF4CF0806C7FF4B8AA70471CF49C
:10230000801F11D01CF4E02F03D06FEACC314900BC
:1023100070474FF04050EFF3008222F0704242EAE3
:10232000000282F3008870474FF000007047000001
:10233000000000000000F03F000000000000F83F37
:1023400000000000000000000000004003B8E23F71
:10235000000000000000000006D0CF43EBFD4C3E23
:10236000033333333333E33FFFAB6FDBB66DDB3F18
:102370004D268F515555D53F01411DA96074D13F60
:1023800065DBC9934A86CD3FEF4E454A287ECA3F5A
:102390003E5555555555C53F93BDBE166CC166BFDC
:1023A0002CDE25AF6A56113FF16BD2C541BDBBBED5
:1023B000D0A4BE726937663E000000000000000035
:1023C000E02300080000002010000000D0010008F9
:1023D000F02300081000002060060000EC01000857
:1023E00000000000000000000000000000000000ED
:040000050800019559
:00000001FF
