:020000040800F2
:1000000028060020950100089D0100089F010008B6
:10001000A1010008A3010008A501000800000000DC
:10002000000000000000000000000000A701000820
:10003000A901000800000000AB010008AD010008A4
:10004000AF010008AF010008AF010008AF010008D0
:10005000AF010008AF010008AF010008AF010008C0
:10006000AF010008AF010008AF010008AF010008B0
:10007000AF010008AF010008AF010008AF010008A0
:10008000AF010008AF010008AF0100080000000048
:10009000000000000000000000000000AF010008A8
:1000A000AF010008AF010008AF010008AF01000870
:1000B000AF010008AF010008AF010008AF01000860
:1000C000AF010008AF010008AF010008AF01000850
:1000D000AF010008AF010008AF01000800000000F8
:1000E000AF010008AF010008AF01000800000000E8
:1000F000000000000000000000000000AF01000848
:1001000000000000AF010008AF010008AF010008C7
:1001100000000000000000000000000000000000DF
:10012000AF010008AF010008AF010008AF010008EF
:10013000AF01000800000000000000000000000007
:10014000000000000000000000000000AF010008F7
:10015000AF010008AF010008AF010008AF010008BF
:10016000AF010008AF01000800000000000000001F
:10017000000000000000000000000000000000007F
:1001800000000000AF0100080000000000000000B7
:10019000AF0100080948804709480047FEE7FEE72D
:1001A000FEE7FEE7FEE7FEE7FEE7FEE7FEE7FEE727
:1001B00004480549054A064B70470000DD01000868
:1001C000EF01000828000020280600202802002057
:1001D0002802002070477047704700001B484FF00E
:1001E0000A011B4A4FF0000300F001F80BE010B4C5
:1001F0008B4206DA50F8234042F8234003F1010312
:10020000F6E710BC704730B44FF001038B4219DAA7
:1002100052F823409C46ACF1010CBCF1000F0ADB04
:1002200052F82C50AC4206DC0CF1010C42F82C5078
:10023000ACF1020CF1E70CF1010C42F82C4003F197
:100240000103E3E730BCFFE7FEE7000054020008CB
:10025000000000200900000003000000050000006D
:10026000000000000700000004000000080000007B
:100270000100000002000000060000000000000075
:10028000000000000000000000000000000000006E
:10029000000000000000000000000000000000005E
:0402A000000000005A
:040000050800019559
:00000001FF
