:020000040800F2
:1000000078060020350200083D0200083F02000883
:1000100041020008430200084502000800000000F9
:10002000000000000000000000000000470200087F
:1000300049020008000000004B0200084D020008C1
:100040004F0200084F0200084F0200084F0200084C
:100050004F0200084F020008E9020008510300089F
:1000600045040008390500082D0600084F02000865
:100070004F0200084F0200084F0200084F0200081C
:100080004F0200084F0200084F0200080000000065
:100090000000000000000000000000004F02000807
:1000A0004F0200084F0200084F0200084F020008EC
:1000B0004F0200084F0200084F0200084F020008DC
:1000C0004F0200084F0200084F0200084F020008CC
:1000D0004F0200084F0200084F0200080000000015
:1000E0004F0200084F0200084F0200080000000005
:1000F0000000000000000000000000004F020008A7
:10010000000000004F0200084F0200084F020008E4
:1001100000000000000000000000000000000000DF
:100120004F0200084F0200084F0200084F0200086B
:100130004F02000800000000000000000000000066
:100140000000000000000000000000004F02000856
:100150004F0200084F0200084F0200084F0200083B
:100160004F0200084F0200080000000000000000DD
:10017000000000000000000000000000000000007F
:10018000000000004F020008000000000000000016
:100190004F02000800F002F800F03CF80AA090E8D6
:1001A000000C82448344AAF10107DA4501D100F032
:1001B00031F8AFF2090EBAE80F0013F0010F18BFC3
:1001C000FB1A43F001031847DC080000FC0800009C
:1001D000103A24BF78C878C1FAD8520724BF30C873
:1001E00030C144BF04680C60704700000023002445
:1001F00000250026103A28BF78C1FBD8520728BF37
:1002000030C148BF0B6070471FB500F045FC1FBDF3
:1002100010B510BD00F031F81146FFF7F5FF00F002
:10022000E7FA00F04FF803B4FFF7F2FF03BC00F069
:1002300053F800000948804709480047FEE7FEE7F9
:10024000FEE7FEE7FEE7FEE7FEE7FEE7FEE7FEE786
:1002500004480549054A064B70470000710700082D
:100260009501000878000020780600207802002020
:1002700078020020704770477047754600F028F8F4
:10028000AE4605006946534620F00700854618B083
:1002900020B5FFF7DDFFBDE820404FF000064FF02E
:1002A00000074FF000084FF0000B21F00701AC46AB
:1002B000ACE8C009ACE8C009ACE8C009ACE8C009CA
:1002C0008D4670470446AFF300802046FFF7ABFF32
:1002D000004870471400002001491820ABBEFEE71B
:1002E000260002007047000010B51548006840F075
:1002F000010013490860062000F00EFA114800685A
:1003000000F0010068B110480068401C0E49086008
:100310000868C11700EB91718910A0EB81010A4AAE
:1003200011600A4800684FF6F071084007490860FC
:10033000084600680449096808430449086010BD7C
:10034000143C0140100802400C000020140402403C
:1003500010B53348006840F00200314908600720BA
:1003600000F0DAF92F48006800F00200002855D0AC
:100370002D480068C8B901202B49086000F0E2FA56
:100380002A4908602A4800F025FA2A4840694FF2B5
:10039000FF01084027494861084640692349096828
:1003A00040EA01202349486138E000201E490860E6
:1003B000012000F0C7FA2049086000F039FB1F490E
:1003C00008601C48406900F470601A49486108469A
:1003D00040691949096840EA0130164948611748DF
:1003E00000680A2190FBF1F201FB120011494969F2
:1003F000084310494861114800680A2190FBF1F058
:100400000C49496941EA00100A4948610C4800F06A
:10041000E1F90848406900200649486110BD000024
:10042000143C014010080240100000200000002091
:1004300040420F000000024004000020080000209D
:10044000E067350010B53348006840F004003149DA
:100450000860082000F060F92F48006800F00400F0
:10046000002856D02D480068D0B901202B490860DB
:10047000022000F067FA2A4908602A4800F0AAF929
:10048000294840694FF2FF01084027494861084662
:1004900040692349096840EA01202349486138E05E
:1004A00000201E490860022000F04CFA1F49086035
:1004B00000F0BEFA1E4908601B48406900F47060F5
:1004C00019494861084640691849096840EA0130FD
:1004D00015494861164800680A2190FBF1F201FBBA
:1004E00012001149496908430F49486110480068E2
:1004F0000A2190FBF1F00C49496941EA00100A49D0
:1005000048610C4800F066F9074840690020064938
:10051000486110BD143C014010080240100000204A
:100520000000002040420F000000024004000020B4
:1005300008000020E067350010B53348006840F03F
:10054000080031490860092000F0E6F82F480068EB
:1005500000F00800002856D02D480068D0B90120CE
:100560002B490860032000F0EDF92A4908602A4869
:1005700000F030F9294840694FF2FF01084027494F
:100580004861084640692349096840EA0120234937
:10059000486138E000201E490860032000F0D2F9CD
:1005A0001F49086000F044FA1E4908601B48406972
:1005B00000F47060194948610846406918490968A3
:1005C00040EA013015494861164800680A2190FB4D
:1005D000F1F201FB12001149496908430F494861D2
:1005E000104800680A2190FBF1F00C49496941EA82
:1005F00000100A4948610C4800F0ECF807484069CF
:1006000000200649486110BD143C0140100802401A
:10061000100000200000002040420F0000000240B7
:100620000400002008000020E067350010B53148C4
:10063000006840F010002F4908600A2000F06CF8B4
:100640002D48006800F01000002851D02B480068A9
:10065000C0B90120294908600020294908602948BB
:1006600000F0B8F8284840694FF2FF0108402649D9
:100670004861084640692249096840EA0120224948
:10068000486135E000201D4908602049086000F0FD
:10069000CFF91F4908601C48406900F470601A498E
:1006A0004861084640691949096840EA013016491D
:1006B0004861174800680A2190FBF1F201FB120023
:1006C00011494969084310494861114800680A21E5
:1006D00090FBF1F00C49496941EA00100A49486170
:1006E0000C4800F077F80848406900200649486146
:1006F00010BD0000143C0140100802401000002012
:100700000000002040420F000000024004000020D2
:1007100008000020E067350000F01F020121914031
:10072000024A430942F823107047000080E200E0CB
:1007300000F01F02012191404209920002F1E022E3
:10074000C2F800117047000010B5002807DA0A0748
:10075000140E054A00F00F031B1FD45403E00A07D0
:10076000130E024A135410BD18ED00E000E400E03F
:100770001448006840F4700012490860124800688C
:1007800040F001001049086000200F49083108605E
:100790000D4800680D4908400B4908600C48091DC8
:1007A0000860081F006820F48020091F08600020EE
:1007B00005490C3108604FF000600249803908603B
:1007C0007047000088ED00E000380240FFFFF6FEB1
:1007D0001030002401B581B000200090009002E0AC
:1007E0000098401C0090DDE900018842F8DB0CBD58
:1007F0004E48006840F001004C4908600846006817
:1008000040F0020008600846006840F004000860FC
:100810004FF05530464908605520464908604FF46E
:10082000A8404549086041481430006840F48040C1
:100830003E49143108604148006840F002003F49D9
:1008400008600846006840F020000860084600681C
:1008500040F4007008600846006840F400500860EA
:1008600036480838C06840F0020134480838C16092
:100870003348006840F01F003149086030480830B4
:10088000006840F01F002E490831086062B6002160
:100890000620FFF759FF0620FFF73EFF0620FFF76F
:1008A00047FF00210720FFF74FFF0720FFF734FF26
:1008B0000720FFF73DFF00210820FFF745FF082034
:1008C000FFF72AFF0820FFF733FF00210920FFF779
:1008D0003BFF0920FFF720FF0920FFF729FF002138
:1008E0000A20FFF731FF0A20FFF716FF0A20FFF763
:1008F0001FFF0F48406900200D4948610D48143022
:10090000006800200B49143108600B48143000685F
:1009100040F61F7108400849143108600846006815
:1009200040F0E000086000BFFEE700003038024001
:100930000000024000040240000802400838014064
:10094000003C014001B5C820FFF744FF374800686C
:100950004FF6DF71084035490860081F0068012123
:10096000009A9140084098B93048006840F0E00093
:100970002E4908600098012800D108BD009802287F
:1009800001D10420F9E70098032801D10720F4E7FA
:10099000264800684FF6BF71084024490860081FC8
:1009A00000680121009A91400840A0B91F480068E2
:1009B00040F0E0001D4908600098012801D10220A4
:1009C000DBE70098022801D10520D6E7009803282C
:1009D00001D10820D1E7154800684FF67F71084023
:1009E00012490860081F00680121009A91400840E0
:1009F000A0B90E48006840F0E0000C49086000987B
:100A0000012801D10320B8E70098022801D106206F
:100A1000B3E70098032801D10920AEE70348006836
:100A200040F0F000014908600020A6E714080240E9
:100A300008B51648006830B91548006815490968B6
:100A40000844009020E011480068012806D11048B1
:100A5000006810490968401A009015E00B480068CA
:100A6000022806D10A4800680A49096848430090EC
:100A70000AE006480068032806D1054800680549D1
:100A8000096890FBF1F00090009808BD0C00002070
:100A900000000020040000204FF04070E1EE100A3A
:100AA00070470000C40A0008000000201400000085
:100AB000D0010008D80A00081400002064060000D5
:100AC000EC01000800000000000000000000000031
:080AD00000000000000000001E
:040000050800019559
:00000001FF
