:020000040800F2
:10000000680700206D0200087502000877020008EA
:10001000790200087B0200087D0200080000000051
:100020000000000000000000000000007F02000847
:100030008102000800000000830200088502000819
:10004000870200088702000887020008870200086C
:1000500087020008870200085D03000811040008F9
:10006000B90400086905000819060008870200089D
:10007000870200088702000887020008870200083C
:1000800087020008870200088702000800000000BD
:1000900000000000000000000000000087020008CF
:1000A000870200088702000887020008870200080C
:1000B00087020008870200088702000887020008FC
:1000C00087020008870200088702000887020008EC
:1000D000870200088702000887020008000000006D
:1000E000870200088702000887020008000000005D
:1000F000000000000000000000000000870200086F
:10010000000000008702000887020008870200083C
:1001100000000000000000000000000000000000DF
:10012000870200088702000887020008870200088B
:10013000870200080000000000000000000000002E
:10014000000000000000000000000000870200081E
:10015000870200088702000887020008870200085B
:10016000870200088702000800000000000000006D
:10017000000000000000000000000000000000007F
:1001800000000000870200080000000000000000DE
:100190008702000800F002F800F03EF80AA090E89C
:1001A000000C82448344AAF10107DA4501D100F032
:1001B00033F8AFF2090EBAE80F0013F0010F18BFC1
:1001C000FB1A43F001031847A0080000C008000014
:1001D000103A24BF78C878C1FAD8520724BF30C873
:1001E00030C144BF04680C60704700000023002445
:1001F00000250026103A28BF78C1FBD8520728BF37
:1002000030C148BF0B6070471FB500F027FC00F0FD
:1002100062F81FBD10B510BD00F069F81146FFF778
:10022000F3FF00F0C5FA00F087F803B4FFF7F2FF20
:1002300003BC00F08DF800000B49D1F800C04A68FB
:100240005CF8043B1068184442F8040B8C4528BF46
:10025000A1F1DC0C8A4228BFA1F1DC02C1F800C088
:100260004A6020F0004070470001002009488047A4
:1002700009480047FEE7FEE7FEE7FEE7FEE7FEE788
:10028000FEE7FEE7FEE7FEE704480549054A064BA0
:10029000704700001507000895010008680100205C
:1002A0006807002068030020680300200B4910B590
:1002B000A1F17C020A4CC2E93712372106E000EBBB
:1002C000104342F82130074B00FB03400B1EA1F105
:1002D0000101F4DC10BD0120E8E70000A0000020CF
:1002E000E119D666CD0D010070477047704775461D
:1002F00000F028F8AE4605006946534620F0070096
:10030000854618B020B5FFF7BFFFBDE820404FF08D
:1003100000064FF000074FF000084FF0000B21F0EF
:100320000701AC46ACE8C009ACE8C009ACE8C009BC
:10033000ACE8C0098D4670470446AFF30080204604
:10034000FFF773FF00487047080100207047000066
:1003500001491820ABBEFEE72600020010B5234875
:10036000006840F0010021490860062000F0A6F96D
:100370001F48006800F00100B0B31E48006898BB39
:100380001D48006801282FD11C48406900F47040C6
:100390001A494861084640691949096840EA01203C
:1003A00016494861084640691649096840EA011043
:1003B00012494861084640691349096808430F49D2
:1003C00048610C480068401C0A4908600F480068F2
:1003D0004FF6F07108400D4908600846006805496D
:1003E000096808430949086010BD0000143C014039
:1003F00010080240140000202000002000000240ED
:1004000004000020080000200C000020140402401A
:1004100010B51F48006840F002001D490860072021
:1004200000F04CF91B48006800F00200F8B11A48CF
:10043000006850B901201849086000F099FA17497E
:100440000860174800F098F921E01648006878B96C
:1004500001201449086000F08BFA13490860104825
:1004600000F08AF9114840690020104948610EE007
:100470000F48006858B901200D49086000F078FA6B
:100480000C4908600948406900200849486110BDCE
:10049000143C014010080240180000200400002015
:1004A00020A107001C0000200800002000000240DE
:1004B000200000200C00002010B52148006840F00A
:1004C00004001F490860082000F0F8F81D48006883
:1004D00000F0040008B31C48006858B901201A490C
:1004E0000860022000F044FA18490860184800F03B
:1004F00043F923E01748006880B9012015490860D6
:10050000022000F035FA14490860114800F034F96F
:10051000124840690020114948610FE01048006806
:1005200060B901200E490860022000F021FA0D494F
:1005300008600A48406900200849486110BD000071
:10054000143C014010080240180000200400002064
:1005500020A107001C00002008000020000002402D
:10056000200000200C00002010B52148006840F059
:1005700008001F490860092000F0A0F81D48006825
:1005800000F0080008B31C48006858B901201A4957
:100590000860032000F0ECF918490860184800F0E2
:1005A000EBF823E01748006880B90120154908607E
:1005B000032000F0DDF914490860114800F0DCF870
:1005C000124840690020114948610FE01048006856
:1005D00060B901200E490860032000F0C9F90D49F7
:1005E00008600A48406900200849486110BD0000C1
:1005F000143C0140100802401800002004000020B4
:1006000020A107001C00002008000020000002407C
:10061000200000200C00002010B51E48006840F0AB
:1006200010001C4908600A2000F048F81A480068C9
:1006300000F0100060B31948006848B9012017495C
:100640000860002016490860164800F095F81FE081
:100650001548006870B9012013490860002013494B
:100660000860104800F088F81148406900201049DF
:1006700048610DE00F48006850B901200D4908603D
:1006800000200D4908600A48406900200849486177
:1006900010BD0000143C014010080240180000206A
:1006A0000400002020A107001C00002008000020FA
:1006B00000000240200000200C00002000F01F027B
:1006C00001219140024A430942F82310704700007B
:1006D00080E200E000F01F020121914042099200F7
:1006E00002F1E022C2F800117047000010B50028A6
:1006F00007DA0A07140E054A00F00F031B1FD45433
:1007000003E00A07130E024A135410BD18ED00E06F
:1007100000E400E01448006840F4700012490860EA
:100720001248006840F001001049086000200F499D
:10073000083108600D4800680D4908400B49086001
:100740000C48091D0860081F006820F48020091F5C
:100750000860002005490C3108604FF00060024934
:10076000803908607047000088ED00E000380240E2
:10077000FFFFF6FE103000244FF47A524FF0E023D2
:100780005A6100229A6105221A61002108E000BF27
:100790004FF0E022126902F48032002AF8D0491C9E
:1007A0008142F4DB00224FF0E0231A617047000021
:1007B000FFF742FD40F2E73190FBF1F201FB12003E
:1007C000401C6449086072B66348006840F001004C
:1007D000614908600846006840F002000860084669
:1007E000006840F0040008604FF055305B49086035
:1007F00055205B4908604FF4A8405A4908605648A4
:100800001430006840F48040534914310860564861
:10081000006840F00200544908600846006840F053
:10082000200008600846006840F400700860084630
:10083000006840F4005008604B480838C06840F039
:10084000020149480838C1604848006840F01F006C
:100850004649086045480830006840F01F00434999
:10086000083108603E482030006840F480103C4960
:10087000203108603A48006820F440603849086038
:100880000846006840F40060086033481030006893
:1008900040F001003049103108600920810788626A
:1008A000C862002048626020886101200862092037
:1008B00048630120086062B600210620FFF716FF9A
:1008C0000620FFF7FBFE0620FFF704FF00210720AC
:1008D000FFF70CFF0720FFF7F1FE0720FFF7FAFEF6
:1008E00000210820FFF702FF0820FFF7E7FE08209D
:1008F000FFF7F0FE00210920FFF7F8FE0920FFF7BF
:10090000DDFE0920FFF7E6FE00210A20FFF7EEFEDC
:100910000A20FFF7D3FE0A20FFF7DCFE0F484069EC
:1009200000200E4948610E481430006800200C4930
:10093000143108600B481430006840F61F710840FD
:100940000849143108600846006840F0E00008607B
:1009500000BFFEE7000000203038024000000240E7
:10096000000402400008024008380140003C0140F9
:1009700001B5C820FFF700FF374800684FF6DF7168
:10098000084035490860081F00680121009A91401D
:10099000084098B93048006840F0E0002E490860EF
:1009A0000098012800D108BD0098022801D1042038
:1009B000F9E70098032801D10720F4E726480068EA
:1009C0004FF6BF71084024490860081F00680121E4
:1009D000009A91400840A0B91F48006840F0E0002C
:1009E0001D4908600098012801D10220DBE700982A
:1009F000022801D10520D6E70098032801D108205C
:100A0000D1E7154800684FF67F7108401249086029
:100A1000081F00680121009A91400840A0B90E48C3
:100A2000006840F0E0000C4908600098012801D1FE
:100A30000320B8E70098022801D10620B3E7009808
:100A4000032801D10920AEE70348006840F0F00018
:100A5000014908600020A6E7140802404FF04070EA
:100A6000E1EE100A70470000880A0008000000202C
:100A700024000000D0010008AC0A00082400002077
:100A800044070000EC010008000000000000000026
:100A90000000000000000000000000000000000056
:0C0AA0000000000000000000000000004A
:040000050800019559
:00000001FF
