:020000040800F2
:10000000F8070020350200083D0200083F02000802
:1000100041020008430200084502000800000000F9
:10002000000000000000000000000000470200087F
:1000300049020008000000004B0200084D020008C1
:100040004F0200084F0200084F0200084F0200084C
:100050004F0200084F0200084F0200084F0200083C
:100060004F0200084F0200084F0200084F0200082C
:100070004F0200084F0200084F0200084F0200081C
:100080004F0200084F0200084F0200080000000065
:100090000000000000000000000000004F02000807
:1000A0004F0200084F0200084F0200084F020008EC
:1000B0004F0200084F0200084F0200084F020008DC
:1000C0004F0200084F0200084F0200084F020008CC
:1000D0004F0200084F0200084F0200080000000015
:1000E0004F0200084F0200084F0200080000000005
:1000F0000000000000000000000000004F020008A7
:10010000000000004F0200084F0200084F020008E4
:1001100000000000000000000000000000000000DF
:10012000410300080D0400084F0200084F020008B8
:100130004F02000800000000000000000000000066
:100140000000000000000000000000004F02000856
:100150004F0200084F0200084F0200084F0200083B
:100160004F0200084F0200080000000000000000DD
:10017000000000000000000000000000000000007F
:10018000000000004F020008000000000000000016
:100190004F02000800F002F800F03CF80AA090E8D6
:1001A000000C82448344AAF10107DA4501D100F032
:1001B00031F8AFF2090EBAE80F0013F0010F18BFC3
:1001C000FB1A43F001031847F8030000180400006D
:1001D000103A24BF78C878C1FAD8520724BF30C873
:1001E00030C144BF04680C60704700000023002445
:1001F00000250026103A28BF78C1FBD8520728BF37
:1002000030C148BF0B6070471FB500F0D3F91FBD68
:1002100010B510BD00F031F81146FFF7F5FF00F002
:10022000ABF900F04FF803B4FFF7F2FF03BC00F0A6
:1002300053F800000948804709480047FEE7FEE7F9
:10024000FEE7FEE7FEE7FEE7FEE7FEE7FEE7FEE786
:1002500004480549054A064B70470000B5040008EC
:1002600095010008F8010020F8070020F80300209D
:10027000F8030020704770477047754600F028F873
:10028000AE4605006946534620F00700854618B083
:1002900020B5FFF7DDFFBDE820404FF000064FF02E
:1002A00000074FF000084FF0000B21F00701AC46AB
:1002B000ACE8C009ACE8C009ACE8C009ACE8C009CA
:1002C0008D4670470446AFF300802046FFF7ABFF32
:1002D000004870479401002001491820ABBEFEE79A
:1002E00026000200704700001248006840F001003C
:1002F000104908601048006840F003000E4908608B
:100300000C481430006840F480700A4914310860C9
:100310004FF00070094948604FF0985088600846D7
:10032000806840F4806088600846806840F0010082
:1003300088607047303802400000024000200140D1
:100340000F48006800F00C0008B100BFFEE7002075
:100350000B49103108603F200949083108600948FD
:10036000806820F48070074988604804006820F0A5
:10037000010049040860012003490860704700003B
:1003800000640240002001400000002010B51D4B19
:100390001B6823F001031B4C236000BF194B1B6833
:1003A00003F00103002BF9D13F23164C083C2360D6
:1003B000144B083319601B1D1860124B1B1D1A606B
:1003C0000023104C236023461B6843F480632360A2
:1003D00023461B6843F0160323600023094C1434A2
:1003E0002360084B1B6843F00103064C2360064B57
:1003F0009B6843F48073044CA36001239C07236033
:1004000010BD00001064024000200140094800684F
:1004100000F00C0008B100BFFEE7002005492831BC
:1004200008603F2003490831086001200249086044
:1004300070470000006402400000002010B518481A
:10044000006840F48000164908603F2015490860A4
:10045000382000F01F02012191404209920002F170
:10046000E022C2F8001100BF00BF00F01F0201210E
:1004700091400D4A430942F8231000BF0021002893
:1004800007DA0A07140E094A00F00F031B1FD454A1
:1004900003E00A07130E064A135400BF10BD000004
:1004A000303802400864024080E200E018ED00E0CD
:1004B00000E400E01448006840F47000124908604D
:1004C0001248006840F001001049086000200F4900
:1004D000083108600D4800680D4908400B49086064
:1004E0000C48091D0860081F006820F48020091FBF
:1004F0000860002005490C3108604FF00060024997
:10050000803908607047000088ED00E00038024044
:10051000FFFFF6FE103000241548006840F002008E
:10052000134908601348006840F0800011490860D2
:1005300010482030006840F480500E492031086097
:100540000B481030006840F0010009491031086084
:100550009F20090688626320C862002048624FF429
:10056000D040886110200862312088637047000005
:10057000303802400004024072B6FFF75FFFFFF719
:10058000B3FEFFF7C9FF62B60CE000200649086021
:10059000C82206490648FFF7F9FE00BF0248006876
:1005A0000028FBD0F1E70000000000204C200140B3
:1005B000040000204FF04070E1EE100A7047000088
:1005C000E00500080000002004000000D001000841
:1005D000E405000804000020F4070000EC01000816
:0405E0000100000016
:040000050800019559
:00000001FF
